:0400000084EF02F097
:1000080000C016F001C015F0E1CF17F0E2CF18F0EC
:100018009EAA1BD0510E3F2403016C6F000E402096
:100028006D6F7CD96CC3E1FF6DC3E2FF00C0E6FFD2
:100038003F4A402A4050030A02E1000E3F1804E1FB
:100048003F6A406A010E3C6E9E9A16C000F015C0C9
:0C00580001F017C0E1FF18C0E2FF11002A
:0A006400850E0D6E0D2EFED7120062
:10006E003A0E0C6E230E0D6E0D2EFED70C2EFCD7F7
:02007E0012006E
:0C008000020E0D6E0D2EFED700001200C7
:10008C0003016BBF02D08A9601D08A866BBD02D069
:10009C008A9401D08A846BBB02D08A9201D08A8266
:1000AC006BB902D08A9001D08A805DB102D08A8867
:1000BC0001D08A988A8ADEDF8A9A6BB702D08A9638
:1000CC0001D08A866BB502D08A9401D08A846BB336
:1000DC0002D08A9201D08A826BB102D08A9001D070
:1000EC008A805DB102D08A8801D08A988A8AC2DF60
:0E00FC008A9A5DA102D0B5DF01D0AEDF1200FE
:10010A00086A080E0C6E003408360450085ED8B02F
:0E011A0002D00826D89000360C2EF5D7120021
:0E01280003015D9166C36BF3ADDF5D811200D4
:1001360066C302F067C303F002C000F003C001F01B
:10014600024A032A00C0E9FF01C0EAFFEE5201E0BD
:10015600F3D703016651025C006E67510358016EC6
:0A016600010E005E000E015A1200A7
:100170006AC300F003016A07005228E066C3E9FF82
:1001800067C3EAFFEE50000A0CE066C3E9FF67C3ED
:10019000EAFF68C3D9FF69C3DAFFEE50DE1801E158
:1001A0000FD066C3E9FF67C3EAFF68C3D9FF69C31D
:1001B000DAFFDE50EE5C006E016A000E015A08D0D4
:1001C0000301664B672B684B692BD2D7006A016A23
:0201D00012001B
:1001D20066C3E9FF67C3EAFFEE500301681905E150
:1001E20066C300F067C301F010D066C300F067C3B6
:1001F20001F0664B672B00C0E9FF01C0EAFFEECFBA
:0C02020000F00052E5E1006A016A120001
:10020E00939A939893909392939493968A9A8A98AA
:10021E008A968A948A928A9023DF22DF21DF8A824D
:10022E008A808A8A26DF8A9A1BDF8A8A22DF8A9A46
:10023E0017DF8A8A1EDF8A9A13DF8A908A8A19DF6D
:10024E008A9A0EDF8A8A15DF8A9A8A928A868A8A23
:10025E0010DF8A9A05DF8A968A808A8A0ADF8A9A4E
:10026E008A908A8A06DF8A9AFBDE8A8A02DF8A9A57
:10027E008A808A8AFEDE8A9AF3DE8A908A8AF9DE7C
:10028E008A9A8A868A848A828A808A8AF2DE8A9A00
:08029E00E7DE03015D8112009F
:1002A60010D0800E0301606F1AD0C00E606F17D099
:1002B600940E606F14D0D40E606F11D0800E606FF4
:1002C6000ED003016051010AECE06051020AEDE034
:1002D6006051030AEDE06051040AEDE0EFD76105D5
:1002E600006E6051002600C060F300C06BF3CBDEE9
:1002F6005D91646B64516225E96E000E6321EA6EBE
:10030600EE520BE064516225E96E000E6321EA6E3F
:0E031600EECF66F306DF642BEDD75D8112009B
:10032400AECF01F0ABA202D0AB98AB8801C000F015
:020334001200B5
:100336000900F5CFE6FF0006FBE10106F9E1120030
:100346000B6A0A6A096A00500402F4CF09F0F3CF77
:1003560008F001500502F4CF0BF0F3CF0AF000507D
:100366000502F3500926F4500A22E86A0B220150CE
:100376000402F3500926F4500A22E86A0B2208C048
:1003860000F009C001F00AC002F00BC003F0120031
:10039600FF0E456EFF0E466EFF0E476EFF0E486E51
:1003A600240E416E030E426E000E436E000E446E26
:1003B600FF0E4D6EFF0E4E6E000E4F6E000E506E0F
:1003C600FF0E496EFF0E4A6E000E4B6E000E4C6E0F
:1003D600AC8A900EAB6E948E949C9EAA03D0AECF40
:0603E60000F0FBD712003D
:1003EC000301636B030E635D0AE263516125E16EE9
:1003FC00000E6221E26E200EE66E632BF3D7635182
:10040C006125E16E000E6221E26EE66A63076351BC
:10041C006125646F000E6221656F0A0E046E60C365
:10042C0000F06DDE08C000F0300E002664C3E1FF62
:10043C0065C3E2FF00C0E6FF0A0E046E60C300F065
:10044C005EDE00C060F30050000A01E102D06307D9
:04045C00DED71200D5
:10046000000E0301611902E1000E601934E060C35F
:10047000E9FF61C3EAFFEE522EE062C366F363C395
:1004800067F359DE00C06AF360C366F361C367F3C4
:1004900062C368F363C369F36BDE000E011802E107
:1004A000000E001805E160C300F061C301F015D033
:1004B000010E03016025666F000E6121676F62C344
:1004C000E9FF63C3EAFFEECF68F383DE00C060F3A9
:0C04D00001C061F3C5D7006A016A120088
:1004DC000301626B62516025E96E000E6121EA6EC8
:1004EC00EE520BE062516025E96E000E6121EA6E5E
:0C04FC00EECF66F313DE622BEDD712008A
:1005080097EC03F00F01396B3B6B3A6B7CDE010E05
:100518006B6FB8DD0C0E6B6FB5DD010E606F010EF1
:10052800616F210E626F000E636FB9DE020E606F9D
:10053800010E616F190E626F000E636FB0DE3C6AC8
:100548003F6A406AB886030EB06E400EAF6EAC8448
:100558001EDF9D8AF28EF28CAB92AB943C50010A5E
:10056800D8A4CDD03C6A510E0301606F000E616FB4
:100578002B0E626F000E636F6FDF00C03DF001C08D
:100588003EF0000E011802E1000E0018D8B4B7D0F2
:10059800070E3D24E96E000E3E20EA6EEE502C0A4E
:1005A800D8B4ADD01F0E3D24E96E000E3E20EA6E91
:1005B800300EEE5C006E016A000E015A640E046E85
:1005C800000E056EBCDE00C05EF301C05FF3200EB6
:1005D8003D24E96E000E3E20EA6E300EEE5C006EA1
:1005E800016A000E015A0A0E046E000E056EA7DE9F
:1005F800005003015E25536F01505F21546F210E97
:100608003D24026E000E3E20036E02C0E9FF03C0C7
:10061800EAFF300EEE5C006E016A000E015A0050CF
:10062800532701505423030E5327000E542302C0AE
:10063800E9FF03C0EAFF300EEE5C006E016A000EAF
:10064800015A640E046E000E056E79DE00C05EF37A
:1006580001C05FF3220E3D24E96E000E3E20EA6ED3
:10066800300EEE5C006E016A000E015A0A0E046E2E
:10067800000E056E64DE00505E25516F01505F214B
:10068800526F230E3D24E96E000E3E20EA6E300EB6
:10069800EE5C006E016A000E015A005051270150AD
:1006A800522353C360F3590E616F030E626F9ADED3
:1006B80051C360F3550E616F030E626F93DE010E36
:1006C8006B6FE0DC0C0E6B6FDDDC010E606F010EF2
:1006D800616F320E626F000E636FE1DD020E606FB4
:1006E800010E616F590E626F030E636FD8DD3A0E0B
:1006F800666F16DD550E606F030E616FEBDE2CD74B
:02070800FFD719
:10072E0010EE19F0230E006E010E016E0A0EF66E1B
:0E073E00070EF76E000EF86E9BEC01F0120035
:08070A0057616974696E670014
:0A0712004750532054696D653A000A
:07071C00244750474C4C003C
:0A0723004750532054696D653A00F9
:020000040030CA
:0D000100331F3CFFBD81FF0FC00FE00F401B
:00000001FF
